:100000000C94B5000C94D2000C94D2000C94D20045
:100010000C94D2000C94D2000C94D2000C94D20018
:100020000C94D2000C94D2000C94D2000C94D20008
:100030000C94D2000C94D2000C94C9030C94D200FE
:100040000C94D2000C94D2000C94D2000C94D200E8
:100050000C94D2000C94D2000C94D2000C94D200D8
:100060000C94D2000C94D2006E616E00696E660032
:1000700000407A10F35A00A0724E18090010A5D45F
:10008000E80000E87648170000E40B54020000CABC
:100090009A3B000000E1F505000080969800000002
:1000A00040420F000000A086010000001027000061
:1000B0000000E803000000006400000000000A00E7
:1000C000000000000100000000002C76D888DC67EA
:1000D0004F0823DFC1DFAE59E1B1B796E5E3E45342
:1000E000C63AE651997696E8E6C28426EB898C9B5F
:1000F00062ED407C6FFCEFBC9C9F40F2BAA56FA5FF
:10010000F490055A2AF75C936B6CF9676DC11BFC80
:10011000E0E40D47FEF520E6B500D0ED902E03009B
:10012000943577050080841E080000204E0A0000E8
:1001300000C80C333333330F986E12831141EF8DA7
:100140002114893BE65516CFFEE6DB18D1844B38E7
:100150001BF77C1D901DA4BBE424203284725E2218
:100160008100C9F124ECA1E53D2711241FBECFEF8A
:10017000D8E0DEBFCDBF11E0A0E0B1E0E2E9F5E1FB
:1001800002C005900D92A43EB107D9F712E0A4EE8B
:10019000B1E001C01D92A531B107E1F70E94CD0782
:1001A0000C94C70A0C94000040988FE99FE00197D7
:1001B000F1F700C000000895409A8FE99FE0019791
:1001C000F1F700C000000895CF93DF931F92CDB7E1
:1001D000DEB70E94D40083E00E94B1038EE00E944B
:1001E000B10380E00E94B10389830E94DC00898111
:1001F0000F90DF91CF91089541988FE39CE901978B
:10020000F1F700C00000419A8FE39CE90197F1F7F4
:1002100000C000000895CF93DF9320E040E050E05D
:1002200060E070E080E00E947B03399A389A0E9477
:10023000FC000E94E4001F928F93CCE9D1E0DF9391
:10024000CF930E941C0A0E94D40082E00E94B10356
:100250008AE20E94B10383E00E94B1030E94DC00A5
:100260000E94D40082E00E94B10389E20E94B1039F
:1002700088EB0E94B1030E94DC000E94D40082E05F
:100280000E94B10388E20E94B10385E00E94B1039D
:100290000E94DC000E94D40085E00E94B1038FE040
:1002A0000E94B10380EE0E94B10380E40E94B1037A
:1002B0000E94DC000E94E4001F928F93DF93CF9393
:1002C0000E941C0A0E94E400807621E030E04DB7D5
:1002D0005EB7485F5F4F0FB6F8945EBF0FBE4DBF6D
:1002E000803611F420E030E0C901DF91CF9108950C
:1002F0008F929F92BF92CF92DF92EF92FF920F93D5
:100300001F93CF93DF931F92CDB7DEB74B018823A6
:1003100011F084E901C080E989830E94D4008981B9
:100320000E94B1038FEF0E94B103B82E8FEF0E949D
:10033000B103182F8FEF0E94B103082F8FEF0E9497
:10034000B103F82E8FEF0E94B1038F70D4011E9677
:100350008C93882309F47BC06401F8E0EF2E8FEFC3
:100360000E94B103F60181936F01EA94C1F7C12E97
:10037000DD24C7FCD0949601207E332745E03595D7
:1003800027954A95E1F74B2D552747FD5095BA0122
:10039000687F7727E3E0660F771FEA95E1F7262B62
:1003A000372BD40119963C932E9318975F93BF92E5
:1003B00088EA91E09F938F930E941C0ADF921F931B
:1003C00022EB31E03F932F930E941C0AF4018185B8
:1003D0008F9380858F932CEB31E03F932F930E9476
:1003E0001C0A0FB6F894DEBF0FBECDBFE12FE87038
:1003F00013FF27C0412F552747FD5095652F752FB7
:10040000BA0155274427112707FD1095212F312FB9
:10041000322F212F102F0027402B512B622B732BB3
:100420008F2D992787FD9095A92FB92F482B592BF0
:100430006A2B7B2BD4011A964D935D936D937C931D
:100440001D9781E0E11101C080E0F40187870E94DF
:10045000DC00D4011E968C910F90DF91CF911F91FB
:100460000F91FF90EF90DF90CF90BF909F908F9073
:100470000895EF92FF920F931F93CF93DF931F92F4
:10048000CDB7DEB77B018150823058F4282F30E0A1
:10049000F901E25DFE4F1081F901E05DFE4F8081C0
:1004A00002C080E411E889830E94D40089810E94FF
:1004B000B103F701878520853185811139C0C901D4
:1004C000B3E096958795BA95E1F70E94B103F701DD
:1004D0002085318503E0369527950A95E1F7332786
:1004E0003F932F9324EC31E03F932F930E941C0AFB
:1004F000F70180858295880F807E1F928F932CEC68
:1005000031E03F932F930E941C0AF701808582956A
:10051000880F807E0E94B10380E00E94B10380E0DA
:100520000E94B1030FB6F894DEBF0FBECDBF19C055
:10053000C901A3E096958795AA95E1F70E94B103BA
:10054000F70180858295880F807E9485892B88604D
:100550000E94B10380E00E94B103F70182850E94EE
:10056000B103F70186850E94B10300E007C0F701DF
:10057000E00FF11D80810E94B1030F5FF7018685B6
:100580000817A8F30E94DC000E94D400812F0E946B
:10059000B1030E94DC00F70186850F90DF91CF91B7
:1005A0001F910F91FF90EF900895209A0895982F32
:1005B00091509F3028F48093030181E080930201E1
:1005C000089583E090E090930101809300010895E5
:1005D00081E090E0909301018093000108950F93D2
:1005E0001F93CF93DF93082F1F928F9324ED31E059
:1005F0003F932F930E941C0A289A81E390E00E9467
:10060000330A83E496E00197F1F700C000000F90F1
:100610000F900F900F90C8E0D0E011E0812F802361
:1006200021F0289880E390E003C0289A81E390E0CD
:100630000E94330A83E496E00197F1F700C00000BE
:10064000110F219759F7289881EE91E0DF91CF9112
:100650001F910F910C943A0A0F931F930E94EF037E
:100660000091E4011091E5012091E6013091E7014C
:100670000617170728073907D8F58091E801813058
:1006800061F018F0823031F520C0E0910001F09166
:100690000101EC5CFE4F808110C080910201882333
:1006A00059F0E0910301F0E0E85CFE4F80810E9488
:1006B000EF021092020103C080E40E94EF028091D9
:1006C000E8018F5F8093E80105C083E80E94EF0294
:1006D0001092E8010E94EF036C597F4F8F4F9F4F9C
:1006E0006093E4017093E5018093E6019093E70144
:1006F0001F910F910895203F29F42398249A22985E
:10070000259804C0239A2498259A229A452B11F003
:1007100040EC01C040E46295660F607E203F11F01E
:1007200030E101C030E081FF02C098E001C090E0FC
:10073000E82FE170F0E0EE0FFF1FEE0FFF1FE62B3A
:10074000822F8270E82B822F8170E82BE42BE32B21
:10075000E92BECBD22FB222720F92DBD08951CBCFE
:1007600008958EBD0DB407FEFDCF8EB508958EBDE4
:100770008EB5089584B5826084BDEEE6F0E0808198
:100780008260808388EC87BD85B5826085BD789462
:1007900008951F920F920FB60F9211248F939F937B
:1007A000AF93BF938091E9019091EA01A091EB0191
:1007B000B091EC018C599F4FAF4FBF4F8093E9012F
:1007C0009093EA01A093EB01B093EC01BF91AF913C
:1007D0009F918F910F900FBE0F901F901895609171
:1007E000E9017091EA018091EB019091EC0128EE12
:1007F00033E040E050E00E94A908B901CA01089521
:100800000F931F930091E9011091EA012091EB01F0
:100810003091EC01B801C9011F910F9108958093A7
:10082000C6008091C00085FFFCCF80E090E0089575
:100830008091C00087FFFCCF8091C60090E00895B2
:100840001092C50080E18093C400E0ECF0E080816C
:100850008260808386E08093C20088E18093C1003B
:1008600084E091E09093100280930F029093120223
:10087000809311020895CF93DF93EC0104C060E0F0
:1008800070E00E940F0489918111F9CFDF91CF911F
:100890000895A3E1B0E0EFE4F4E00C94CB087C0110
:1008A0005B018A01FC0117821682838181FD03C0EE
:1008B0006DC3860105C088248394912C8C0E9D1EE7
:1008C000F7019381F50193FD859193FF81915F017C
:1008D000882309F457C3853239F493FD859193FF3A
:1008E00081915F01853231F4B70190E00E94F009F7
:1008F0006801DFCF412C512C20E02032A8F48B324C
:1009000061F028F4803251F0833271F40BC08D32E3
:1009100039F0803349F4216028C02260246025C06A
:10092000286023C0206121C027FD27C0382F305305
:100930003A3078F426FF06C0FAE04F9E300D1124BD
:10094000432E13C08AE0589E300D1124532E20628E
:100950000CC08E3221F426FD15C3206406C08C36EF
:1009600011F4206802C0883641F4F50193FD8591A9
:1009700093FF81915F018111C0CF982F95549330DF
:1009800018F42061805E06C0982F9556933008F0C9
:10099000A1C12F7E26FD02C056E0452E4FE3742EE6
:1009A0007222853619F4F0E47F2A07C0863619F4DE
:1009B00020E8722A02C041104A9477FE07C03BE348
:1009C000341548F0342C339427E00DC087E08415AB
:1009D00030F0242D07C027E03CE3332E04C027E08D
:1009E00097E0492E312C680194E0C90ED11CF80122
:1009F0006081718182819381032DA4010E9402098B
:100A00008C0129812C8720FF02C023FF07C071FCC5
:100A100008C072FE09C080E2682E07C0BDE26B2EDE
:100A200004C0ABE26A2E01C0612C8C858C70A1F1F0
:100A3000662011F084E001C083E0851510F0512C90
:100A40000BC0581A73FC08C0B70180E290E00E9406
:100A5000F0095A94C9F7F3CF662029F0B701862D23
:100A600090E00E94F0093C8533FD03C00CE610E0E5
:100A70000CC008E610E009C071108052B70190E088
:100A80000E94F0090F5F1F4F02C080E17822F80139
:100A900084918111F1CF73C277FE0EC0300E2C8588
:100AA00024FF04C08A81813309F43A9413144CF56D
:100AB00038E0331548F12CC076FC2AC0242D30E0F4
:100AC0002017310744F00C3F8FEF180724F090E80F
:100AD000792A01C04A94442049F0E2E0F0E0EC0FAA
:100AE000FD1FE40DF11D80818033A1F377FE10C05E
:100AF000342C3394242D30E00217130744F4401AA9
:100B000007C03324339404C0F8E03F2E01C0412CC9
:100B100077FE07C0101611063CF498012F5F3F4F77
:100B200005C025E030E002C021E030E0662011F091
:100B30002F5F3F4F442031F0442D50E04F5F5F4F17
:100B4000240F351F452D50E02417350714F4521A91
:100B500001C0512C872D897049F406C0B70180E28D
:100B600090E00E94F0095A945110F8CF662029F0C5
:100B7000B701862D90E00E94F00973FC09C006C001
:100B8000B70180E390E00E94F0095A945110F8CF29
:100B900077FE53C0380117FF02C0612C712C1E86EE
:100BA0001D86980123193109388B2F8718012618C3
:100BB0003708280C391C642D70E022273327261BA8
:100BC000370B3A8B298B3FEF6316730629F4B70175
:100BD0008EE290E00E94F009061517055CF02F8563
:100BE00038892615370534F4ED85FE85E20DF31DB1
:100BF000818101C080E331E0631A71082D853E8553
:100C00002F5F3F4F3E872D8729893A8962167306E9
:100C10002CF0B70190E00E94F009D5CF6016710664
:100C200049F49A81963328F4953321F43C8534FDB8
:100C300001C081E3B70190E04AC08A81813319F095
:100C40002C852F7E2C87B70190E00E94F00941107F
:100C500005C074FE16C085E490E015C0B7018EE2B1
:100C600090E00E94F009E2E06E2EF401E60DF11D25
:100C70006394B701808190E00E94F0094A94A9F73B
:100C8000E8CF85E690E0B7010E94F00917FD06C0A5
:100C90000115110541F43C8534FF05C011950195FE
:100CA00011098DE201C08BE2B70190E00E94F009CA
:100CB00080E303C08F5F0A5011090A301105D4F791
:100CC000B70190E00E94F009B701C801C0960E94E8
:100CD000F00955C1833631F0833781F0833509F04F
:100CE0005EC024C0680182E0C80ED11CF80180817A
:100CF000898366246394712C840114C06801F2E036
:100D0000CF0ED11CF8010081118126FF03C0642D94
:100D100070E002C06FEF7FEFC8012B8B0E94E509E6
:100D20003C012B896FE7462E422217C06801F2E092
:100D3000CF0ED11CF8010081118126FF03C0642D64
:100D400070E002C06FEF7FEFC8012B8B0E94DA09C1
:100D50003C012B8950E8452E422A43FC1CC006C0AA
:100D6000B70180E290E00E94F0095A94852D90E04E
:100D700068167906A8F30FC0F80147FC859147FE75
:100D800081918F01B70190E00E94F00951105A94AF
:100D9000F1E06F1A71086114710471F7F0C08436C4
:100DA00011F0893661F5680127FF09C034E0C30EF0
:100DB000D11CF80160817181828193810AC0F2E0C7
:100DC000CF0ED11CF80160817181882777FD809555
:100DD000982F4FE6742E722297FF09C09095809548
:100DE000709561957F4F8F4F9F4FF0E87F2A2AE0E3
:100DF00030E0A4010E94690A682E681847C0853750
:100E000031F43FEE732E72222AE030E024C099EFD5
:100E1000792E72228F36B9F020F4883509F0B2C0ED
:100E20000DC0803721F0883709F0ACC002C020E146
:100E3000722A74FE0BC034E0732A08C024FF09C074
:100E400086E0782A06C028E030E005C020E130E0E6
:100E500002C020E132E0680177FE09C094E0C90ECB
:100E6000D11CF801608171818281938108C0F2E018
:100E7000CF0ED11CF8016081718180E090E0A40167
:100E80000E94690A682E6818FFE77F2276FE0BC071
:100E9000072D0E7F641450F474FE0AC072FC08C063
:100EA000072D0E7E05C0162D072D03C0162D01C07F
:100EB000142D04FF0CC0FE01E60DF11D808180336E
:100EC00011F4097E08C002FF05C01E5F04C0802F18
:100ED000867809F01F5F03FD12C000FF0DC0462C8D
:100EE000151550F4450C411A152D06C0B70180E2C6
:100EF00090E00E94F0091F5F1515C0F304C015159E
:100F000010F4511A01C0512C04FF10C0B70180E346
:100F100090E00E94F00902FF1EC001FF03C088E5B7
:100F200090E002C088E790E0B7010CC0802F86787F
:100F300091F001FD02C080E201C08BE207FD8DE26D
:100F4000B70190E00E94F00906C0B70180E390E08D
:100F50000E94F0094A946414C0F36A94F401E60D07
:100F6000F11DB701808190E00E94F0096110F5CF7A
:100F700006C0B70180E290E00E94F0095A94511037
:100F8000F8CF97CCF7012681378102C02FEF3FEFD2
:100F9000C9016396E2E10C94E7080E9420040E94D4
:100FA0000B010E94BA030E94D50288E491E00E94DE
:100FB0003A0A0E94E80285E990E09093F701809355
:100FC000F60181E38093EE0182E38093EF0183E3F6
:100FD0008093F00184E38093F10185E38093F20133
:100FE00086E38093F30187E38093F40188E38093A1
:100FF000F50188E08093FC011092FD016EEE71E036
:1010000080E00E943902C9E6D1E001E711E08BE7F8
:10101000E82E81E0F82E94E8C92E91E0D92E2EE832
:10102000A22E21E0B22E6EEF71E080E00E947801E6
:10103000882309F43FC084E591E00E943A0A809138
:1010400007028F93809106028F93DF93CF930E94C4
:101050001C0A8EEF91E09F938F931F930F930E9432
:101060001C0A80910C021F928F93FF92EF920E94B4
:101070001C0A80910B028F9380910A028F938091BA
:1010800009028F93809108028F93DF92CF920E9482
:101090001C0A80910D021F928F93BF92AF920E9403
:1010A0001C0A8DB79EB746960FB6F8949EBF0FBE2A
:1010B0008DBF45C06EEF71E081E00E94780188230A
:1010C000F1F184E591E00E943A0A809107028F9342
:1010D000809106028F93DF93CF930E941C0A8EEFBC
:1010E00091E09F938F931F930F930E941C0A80910E
:1010F0000C021F928F93FF92EF920E941C0A809124
:101100000B028F9380910A028F93809109028F9333
:10111000809108028F93DF92CF920E941C0A8091E7
:101120000D021F928F93BF92AF920E941C0A8DB73F
:101130009EB746960FB6F8949EBF0FBE8DBF9FEF29
:1011400023ED80E3915020408040E1F700C0000093
:101150006ACFA1E21A2EAA1BBB1BFD010DC0AA1F5C
:10116000BB1FEE1FFF1FA217B307E407F50720F010
:10117000A21BB30BE40BF50B661F771F881F991F8B
:101180001A9469F760957095809590959B01AC01D4
:10119000BD01CF0108952F923F924F925F926F92BF
:1011A0007F928F929F92AF92BF92CF92DF92EF92F7
:1011B000FF920F931F93CF93DF93CDB7DEB7CA1B78
:1011C000DB0B0FB6F894DEBF0FBECDBF09942A88A3
:1011D000398848885F846E847D848C849B84AA844B
:1011E000B984C884DF80EE80FD800C811B81AA81D8
:1011F000B981CE0FD11D0FB6F894DEBF0FBECDBFA3
:10120000ED010895283008F027E03327DA01990F1F
:10121000311D87FD916000966105710539F43260DA
:101220002E5F3D9330E32A95E1F708959F3F30F01C
:1012300080387105610509F03C5F3C5F3D9391305A
:1012400008F08068911DDF93CF931F930F93FF9257
:10125000EF92192F987F9695E92F96959695E90F1D
:10126000FF27E653FF4F99273327EE24FF24A701DA
:10127000E70105900894079428F4360FE71EF81E3E
:10128000491F511D660F771F881F991F0694A1F7EC
:101290000590079428F4E70EF81E491F561FC11D3C
:1012A000770F881F991F661F0694A1F70590079472
:1012B00028F4F80E491F561FC71FD11D880F991F0C
:1012C000661F771F0694A1F70590079420F4490F35
:1012D000561FC71FD81F990F661F771F881F0694B8
:1012E000A9F784911095177041F0D695C795579539
:1012F0004795F794E7941A95C1F7E0E7F0E0689412
:101300001590159135916591959105907FE27395B2
:10131000E118F10A430B560BC90BD009C0F7E10CD9
:10132000F11E431F561FC91FD01D7EF4703311F4E8
:101330008A95E6CFE894015030F0080F0AF40027B0
:10134000021708F4202F2395022F7A3328F079E32F
:101350007D932A95E9F710C07D932A9589F6069426
:1013600097956795379517951794E118F10A430BF0
:10137000560BC90BD00998F023957E9173957A335B
:1013800008F070E37C932013B8F77E9170617D9331
:1013900030F0839571E37D9370E32A95E1F7112492
:1013A000EF90FF900F911F91CF91DF91992787FDCB
:1013B00090950895FC010590615070400110D8F798
:1013C000809590958E0F9F1F0895FC01615070408D
:1013D00001900110D8F7809590958E0F9F1F08956A
:1013E0000F931F93CF93DF938C01EB018B8181FDD2
:1013F00003C00FEF1FEF1AC082FF0DC02E813F8187
:101400008C819D812817390764F4E881F981019363
:10141000F983E88306C0E885F985802F0995892B33
:1014200041F78E819F8101969F838E83C801DF9152
:10143000CF911F910F910895A2E0B0E0E2E2FAE0AF
:101440000C94DB08FE01379661917191FA83E98370
:10145000AF0180911102909112020E9449042296DC
:10146000E2E00C94F70860911102709112020E9460
:10147000F00908950F931F93CF93DF938C01E091B0
:101480001102F0911202838181FF1BC0C0E0D0E005
:1014900005C00995892B11F0CFEFDFEFF80181919D
:1014A0008F016091110270911202DB011896ED918B
:1014B000FC9119978111EDCF8AE00995892B09F4E8
:1014C00002C0CFEFDFEFCE01DF91CF911F910F91DF
:1014D0000895FA01AA27283051F1203181F1E894CA
:1014E0006F936E7F6E5F7F4F8F4F9F4FAF4FB1E017
:1014F0003ED0B4E03CD0670F781F891F9A1FA11D12
:10150000680F791F8A1F911DA11D6A0F711D811D12
:10151000911DA11D20D009F468943F912AE0269FD7
:1015200011243019305D3193DEF6CF010895462F36
:101530004770405D4193B3E00FD0C9F7F6CF462F17
:101540004F70405D4A3318F0495D31FD4052419380
:1015500002D0A9F7EACFB4E0A6959795879577953D
:101560006795BA95C9F700976105710508959B01C4
:10157000AC010A2E06945795479537952795BA954D
:10158000C9F7620F731F841F951FA01D0895F8945B
:02159000FFCF8B
:101592000100010500000003000000000F04180410
:1015A200000000000001000000000000180400001C
:1015B20000000002000000000F040000000082830F
:1015C2004244910140454C462061622364252667CE
:1015D20068292A2C6B6D6E2F496E697420646F6EB8
:1015E200652E0A0052656365697665642043414E43
:1015F200206D6573736167650049443A2025780A56
:1016020000446174613A2025730A004C656E3A20E9
:1016120025750A004578743A20256C780A004578C9
:101622007420666C61673A2025750A0073746174D0
:1016320075733A2025780A0069645F683A20256349
:101642000A0069645F6C3A2025630A0069643A20E3
:1016520025750A0074683A2025780A00746C3A20CD
:1016620025780A0053656E64696E673A2025780A08
:041672000030000044
:00000001FF
