:100000000C94B5000C94D2000C94D2000C94D20045
:100010000C94D2000C94D2000C94D2000C94D20018
:100020000C94D2000C94D2000C94D2000C94D20008
:100030000C94D2000C94D2000C94D2000C94D200F8
:100040000C94D2000C94D2000C94D2000C94D200E8
:100050000C94D2000C94D2000C94D2000C94D200D8
:100060000C94D2000C94D2006E616E00696E660032
:1000700000407A10F35A00A0724E18090010A5D45F
:10008000E80000E87648170000E40B54020000CABC
:100090009A3B000000E1F505000080969800000002
:1000A00040420F000000A086010000001027000061
:1000B0000000E803000000006400000000000A00E7
:1000C000000000000100000000002C76D888DC67EA
:1000D0004F0823DFC1DFAE59E1B1B796E5E3E45342
:1000E000C63AE651997696E8E6C28426EB898C9B5F
:1000F00062ED407C6FFCEFBC9C9F40F2BAA56FA5FF
:10010000F490055A2AF75C936B6CF9676DC11BFC80
:10011000E0E40D47FEF520E6B500D0ED902E03009B
:10012000943577050080841E080000204E0A0000E8
:1001300000C80C333333330F986E12831141EF8DA7
:100140002114893BE65516CFFEE6DB18D1844B38E7
:100150001BF77C1D901DA4BBE424203284725E2218
:100160008100C9F124ECA1E53D2711241FBECFEF8A
:10017000D8E0DEBFCDBF11E0A0E0B1E0EAE3FEE0F1
:1001800002C005900D92AE31B107D9F711E0AEE192
:10019000B1E001C01D92A032B107E1F70E9448050D
:1001A0000C941B070C94000020E040E050E060E05D
:1001B00070E080E00E945A01089540988FE99FE026
:1001C0000197F1F700C000000895409A8FE99FE081
:1001D0000197F1F700C000000895CF930E94DD0061
:1001E00083E00E9490018EE00E94900180E00E94D6
:1001F0009001C82F0E94E5008C2FCF91089541985F
:100200008FE39CE90197F1F700C00000419A8FE36A
:100210009CE90197F1F700C0000008950E94D40006
:1002200087B1836087B90E94FF000E94DD0082E0F1
:100230000E9490018AE20E94900183E00E94900156
:100240000E94E5000E94DD0082E00E94900189E2A8
:100250000E94900188EB0E9490010E94E5000E949C
:10026000DD0082E00E94900188E20E94900185E01A
:100270000E9490010E94E5000E94DD0085E00E943E
:1002800090018FE00E94900180EE0E94900180E634
:100290000E9490010E94E5000E94ED00807621E01E
:1002A00030E0803611F420E030E0C901089580E0AC
:1002B00090E00895203F29F42398249A22982598C5
:1002C00004C0239A2498259A229A452B11F040ECD9
:1002D00001C040E46295660F607E203F11F030E17E
:1002E00001C030E081FF02C098E001C090E0E82F3B
:1002F000E170F0E0EE0FFF1FEE0FFF1FE62B822FE5
:100300008270E82B822F8170E82BE42BE32BE92B02
:10031000ECBD22FB222720F92DBD08951CBC0895B9
:100320008EBD0DB407FEFDCF8EB508958EBD8EB582
:1003300008951092C50087E68093C400E0ECF0E0D9
:1003400080818D7F808386E08093C20088E18093E6
:10035000C10008958093C6008091C00085FFFCCF46
:1003600008958091C00087FFFCCF8091C60008955A
:10037000CF93DF93EC0102C00E94AA018991811101
:10038000FBCFDF91CF910895A3E1B0E0EAECF1E07B
:100390000C946C057C015B018A01FC0117821682BA
:1003A000838181FD03C06DC3860105C088248394C9
:1003B000912C8C0E9D1EF7019381F50193FD859183
:1003C00093FF81915F01882309F457C3853239F483
:1003D00093FD859193FF81915F01853231F4B701DF
:1003E00090E00E9491066801DFCF412C512C20E063
:1003F0002032A8F48B3261F028F4803251F083323D
:1004000071F40BC08D3239F0803349F4216028C07B
:100410002260246025C0286023C0206121C027FD00
:1004200027C0382F30533A3078F426FF06C0FAE060
:100430004F9E300D1124432E13C08AE0589E300D7C
:100440001124532E20620CC08E3221F426FD15C3D8
:10045000206406C08C3611F4206802C0883641F44E
:10046000F50193FD859193FF81915F018111C0CFCB
:10047000982F9554933018F42061805E06C0982F11
:100480009556933008F0A1C12F7E26FD02C056E09C
:10049000452E4FE3742E7222853619F4F0E47F2A3C
:1004A00007C0863619F420E8722A02C041104A9427
:1004B00077FE07C03BE3341548F0342C339427E033
:1004C0000DC087E0841530F0242D07C027E03CE301
:1004D000332E04C027E097E0492E312C680194E0C8
:1004E000C90ED11CF8016081718182819381032D35
:1004F000A4010E94A3058C0129812C8720FF02C042
:1005000023FF07C071FC08C072FE09C080E2682E9C
:1005100007C0BDE26B2E04C0ABE26A2E01C0612CA5
:100520008C858C70A1F1662011F084E001C083E01D
:10053000851510F0512C0BC0581A73FC08C0B70178
:1005400080E290E00E9491065A94C9F7F3CF6620AA
:1005500029F0B701862D90E00E9491063C8533FD7D
:1005600003C00CE610E00CC008E610E009C07110F2
:100570008052B70190E00E9491060F5F1F4F02C0AA
:1005800080E17822F80184918111F1CF73C277FE66
:100590000EC0300E2C8524FF04C08A81813309F4FB
:1005A0003A9413144CF538E0331548F12CC076FC1E
:1005B0002AC0242D30E02017310744F00C3F8FEF84
:1005C000180724F090E8792A01C04A94442049F0A1
:1005D000E2E0F0E0EC0FFD1FE40DF11D80818033BF
:1005E000A1F377FE10C0342C3394242D30E0021791
:1005F000130744F4401A07C03324339404C0F8E0CE
:100600003F2E01C0412C77FE07C0101611063CF4A6
:1006100098012F5F3F4F05C025E030E002C021E088
:1006200030E0662011F02F5F3F4F442031F0442D21
:1006300050E04F5F5F4F240F351F452D50E02417CA
:10064000350714F4521A01C0512C872D897049F4D2
:1006500006C0B70180E290E00E9491065A945110C2
:10066000F8CF662029F0B701862D90E00E94910610
:1006700073FC09C006C0B70180E390E00E949106B8
:100680005A945110F8CF77FE53C0380117FF02C0BB
:10069000612C712C1E861D86980123193109388B17
:1006A0002F87180126183708280C391C642D70E094
:1006B00022273327261B370B3A8B298B3FEF6316F4
:1006C000730629F4B7018EE290E00E9491060615A8
:1006D00017055CF02F8538892615370534F4ED852C
:1006E000FE85E20DF31D818101C080E331E0631AD4
:1006F00071082D853E852F5F3F4F3E872D872989C5
:100700003A89621673062CF0B70190E00E949106B8
:10071000D5CF6016710649F49A81963328F4953343
:1007200021F43C8534FD01C081E3B70190E04AC06B
:100730008A81813319F02C852F7E2C87B70190E0B8
:100740000E949106411005C074FE16C085E490E039
:1007500015C0B7018EE290E00E949106E2E06E2E95
:10076000F401E60DF11D6394B701808190E00E94D1
:1007700091064A94A9F7E8CF85E690E0B7010E9478
:10078000910617FD06C00115110541F43C8534FFA3
:1007900005C01195019511098DE201C08BE2B701E9
:1007A00090E00E94910680E303C08F5F0A50110918
:1007B0000A301105D4F7B70190E00E949106B70105
:1007C000C801C0960E94910655C1833631F0833727
:1007D00081F0833509F05EC024C0680182E0C80E54
:1007E000D11CF8018081898366246394712C840173
:1007F00014C06801F2E0CF0ED11CF8010081118114
:1008000026FF03C0642D70E002C06FEF7FEFC801C8
:100810002B8B0E9486063C012B896FE7462E4222D5
:1008200017C06801F2E0CF0ED11CF80100811181E0
:1008300026FF03C0642D70E002C06FEF7FEFC80198
:100840002B8B0E947B063C012B8950E8452E422AC7
:1008500043FC1CC006C0B70180E290E00E949106F4
:100860005A94852D90E068167906A8F30FC0F80118
:1008700047FC859147FE81918F01B70190E00E946E
:10088000910651105A94F1E06F1A710861147104C5
:1008900071F7F0C0843611F0893661F5680127FFE1
:1008A00009C034E0C30ED11CF801608171818281DE
:1008B00093810AC0F2E0CF0ED11CF80160817181F2
:1008C000882777FD8095982F4FE6742E722297FF28
:1008D00009C090958095709561957F4F8F4F9F4F80
:1008E000F0E87F2A2AE030E0A4010E94BD06682ECD
:1008F000681847C0853731F43FEE732E72222AE024
:1009000030E024C099EF792E72228F36B9F020F4AE
:10091000883509F0B2C00DC0803721F0883709F062
:10092000ACC002C020E1722A74FE0BC034E0732A0E
:1009300008C024FF09C086E0782A06C028E030E01D
:1009400005C020E130E002C020E132E0680177FE1E
:1009500009C094E0C90ED11CF801608171818281C7
:10096000938108C0F2E0CF0ED11CF8016081718143
:1009700080E090E0A4010E94BD06682E6818FFE7A1
:100980007F2276FE0BC0072D0E7F641450F474FE98
:100990000AC072FC08C0072D0E7E05C0162D072D5B
:1009A00003C0162D01C0142D04FF0CC0FE01E60D7E
:1009B000F11D8081803311F4097E08C002FF05C05B
:1009C0001E5F04C0802F867809F01F5F03FD12C0F0
:1009D00000FF0DC0462C151550F4450C411A152D7D
:1009E00006C0B70180E290E00E9491061F5F1515D6
:1009F000C0F304C0151510F4511A01C0512C04FFA6
:100A000010C0B70180E390E00E94910602FF1EC073
:100A100001FF03C088E590E002C088E790E0B701DD
:100A20000CC0802F867891F001FD02C080E201C0E9
:100A30008BE207FD8DE2B70190E00E94910606C0AF
:100A4000B70180E390E00E9491064A946414C0F3D9
:100A50006A94F401E60DF11DB701808190E00E94D7
:100A600091066110F5CF06C0B70180E290E00E94C8
:100A700091065A945110F8CF97CCF701268137810F
:100A800002C02FEF3FEFC9016396E2E10C948805A5
:100A90000E9499010E940E01892B21F080E091E0D3
:100AA0000E94B8013B9A439A8DE091E00E94B80100
:100AB000C8E02FEF83ED90E3215080409040E1F7B4
:100AC00000C000000E94ED0080931E010E94AA0158
:100AD00088B18C2788B9EDCF2F923F924F925F92C9
:100AE0006F927F928F929F92AF92BF92CF92DF923E
:100AF000EF92FF920F931F93CF93DF93CDB7DEB7A3
:100B0000CA1BDB0B0FB6F894DEBF0FBECDBF099436
:100B10002A88398848885F846E847D848C849B848D
:100B2000AA84B984C884DF80EE80FD800C811B819B
:100B3000AA81B981CE0FD11D0FB6F894DEBF0FBECA
:100B4000CDBFED010895283008F027E03327DA0102
:100B5000990F311D87FD916000966105710539F48B
:100B600032602E5F3D9330E32A95E1F708959F3F71
:100B700030F080387105610509F03C5F3C5F3D93C2
:100B8000913008F08068911DDF93CF931F930F93EE
:100B9000FF92EF92192F987F9695E92F969596954B
:100BA000E90FFF27E653FF4F99273327EE24FF2451
:100BB000A701E70105900894079428F4360FE71E73
:100BC000F81E491F511D660F771F881F991F069435
:100BD000A1F70590079428F4E70EF81E491F561F49
:100BE000C11D770F881F991F661F0694A1F70590F6
:100BF000079428F4F80E491F561FC71FD11D880FF0
:100C0000991F661F771F0694A1F70590079420F49B
:100C1000490F561FC71FD81F990F661F771F881FC0
:100C20000694A9F784911095177041F0D695C79551
:100C300057954795F794E7941A95C1F7E0E7F0E0E8
:100C400068941590159135916591959105907FE285
:100C50007395E118F10A430B560BC90BD009C0F785
:100C6000E10CF11E431F561FC91FD01D7EF47033C7
:100C700011F48A95E6CFE894015030F0080F0AF499
:100C80000027021708F4202F2395022F7A3328F02B
:100C900079E37D932A95E9F710C07D932A9589F62B
:100CA000069497956795379517951794E118F10A6B
:100CB000430B560BC90BD00998F023957E91739581
:100CC0007A3308F070E37C932013B8F77E9170615B
:100CD0007D9330F0839571E37D9370E32A95E1F77E
:100CE0001124EF90FF900F911F91CF91DF919927E1
:100CF00087FD90950895FC010590615070400110AA
:100D0000D8F7809590958E0F9F1F0895FC01615034
:100D1000704001900110D8F7809590958E0F9F1F1D
:100D200008950F931F93CF93DF938C01EB018B8179
:100D300081FD03C00FEF1FEF1AC082FF0DC02E818F
:100D40003F818C819D812817390764F4E881F981FE
:100D50000193F983E88306C0E885F985802F09951A
:100D6000892B41F78E819F8101969F838E83C801D5
:100D7000DF91CF911F910F910895FA01AA27283092
:100D800051F1203181F1E8946F936E7F6E5F7F4F58
:100D90008F4F9F4FAF4FB1E03ED0B4E03CD0670FD4
:100DA000781F891F9A1FA11D680F791F8A1F911D27
:100DB000A11D6A0F711D811D911DA11D20D009F477
:100DC00068943F912AE0269F11243019305D3193B9
:100DD000DEF6CF010895462F4770405D4193B3E0A2
:100DE0000FD0C9F7F6CF462F4F70405D4A3318F049
:100DF000495D31FD4052419302D0A9F7EACFB4E0FA
:100E0000A6959795879577956795BA95C9F70097B1
:100E10006105710508959B01AC010A2E0694579552
:100E2000479537952795BA95C9F7620F731F841FA9
:0A0E3000951FA01D0895F894FFCF50
:100E3A00496E6974206661696C65642100496E694E
:0E0E4A0074207375636365737366756C2100A5
:00000001FF
